{
  "contractName": "MintNFT",
  "abi": [
    {
      "inputs": [
        {
          "internalType": "address",
          "name": "_tokenAddress",
          "type": "address"
        }
      ],
      "stateMutability": "nonpayable",
      "type": "constructor"
    },
    {
      "anonymous": false,
      "inputs": [
        {
          "indexed": true,
          "internalType": "address",
          "name": "owner",
          "type": "address"
        },
        {
          "indexed": true,
          "internalType": "address",
          "name": "approved",
          "type": "address"
        },
        {
          "indexed": true,
          "internalType": "uint256",
          "name": "tokenId",
          "type": "uint256"
        }
      ],
      "name": "Approval",
      "type": "event"
    },
    {
      "anonymous": false,
      "inputs": [
        {
          "indexed": true,
          "internalType": "address",
          "name": "owner",
          "type": "address"
        },
        {
          "indexed": true,
          "internalType": "address",
          "name": "operator",
          "type": "address"
        },
        {
          "indexed": false,
          "internalType": "bool",
          "name": "approved",
          "type": "bool"
        }
      ],
      "name": "ApprovalForAll",
      "type": "event"
    },
    {
      "anonymous": false,
      "inputs": [
        {
          "indexed": true,
          "internalType": "address",
          "name": "previousOwner",
          "type": "address"
        },
        {
          "indexed": true,
          "internalType": "address",
          "name": "newOwner",
          "type": "address"
        }
      ],
      "name": "OwnershipTransferred",
      "type": "event"
    },
    {
      "anonymous": false,
      "inputs": [
        {
          "indexed": true,
          "internalType": "address",
          "name": "from",
          "type": "address"
        },
        {
          "indexed": true,
          "internalType": "address",
          "name": "to",
          "type": "address"
        },
        {
          "indexed": true,
          "internalType": "uint256",
          "name": "tokenId",
          "type": "uint256"
        }
      ],
      "name": "Transfer",
      "type": "event"
    },
    {
      "inputs": [
        {
          "internalType": "address",
          "name": "to",
          "type": "address"
        },
        {
          "internalType": "uint256",
          "name": "tokenId",
          "type": "uint256"
        }
      ],
      "name": "approve",
      "outputs": [],
      "stateMutability": "nonpayable",
      "type": "function"
    },
    {
      "inputs": [
        {
          "internalType": "address",
          "name": "owner",
          "type": "address"
        }
      ],
      "name": "balanceOf",
      "outputs": [
        {
          "internalType": "uint256",
          "name": "",
          "type": "uint256"
        }
      ],
      "stateMutability": "view",
      "type": "function",
      "constant": true
    },
    {
      "inputs": [
        {
          "internalType": "uint256",
          "name": "tokenId",
          "type": "uint256"
        }
      ],
      "name": "getApproved",
      "outputs": [
        {
          "internalType": "address",
          "name": "",
          "type": "address"
        }
      ],
      "stateMutability": "view",
      "type": "function",
      "constant": true
    },
    {
      "inputs": [
        {
          "internalType": "address",
          "name": "owner",
          "type": "address"
        },
        {
          "internalType": "address",
          "name": "operator",
          "type": "address"
        }
      ],
      "name": "isApprovedForAll",
      "outputs": [
        {
          "internalType": "bool",
          "name": "",
          "type": "bool"
        }
      ],
      "stateMutability": "view",
      "type": "function",
      "constant": true
    },
    {
      "inputs": [],
      "name": "metadataURI",
      "outputs": [
        {
          "internalType": "string",
          "name": "",
          "type": "string"
        }
      ],
      "stateMutability": "view",
      "type": "function",
      "constant": true
    },
    {
      "inputs": [],
      "name": "name",
      "outputs": [
        {
          "internalType": "string",
          "name": "",
          "type": "string"
        }
      ],
      "stateMutability": "view",
      "type": "function",
      "constant": true
    },
    {
      "inputs": [],
      "name": "owner",
      "outputs": [
        {
          "internalType": "address",
          "name": "",
          "type": "address"
        }
      ],
      "stateMutability": "view",
      "type": "function",
      "constant": true
    },
    {
      "inputs": [
        {
          "internalType": "uint256",
          "name": "tokenId",
          "type": "uint256"
        }
      ],
      "name": "ownerOf",
      "outputs": [
        {
          "internalType": "address",
          "name": "",
          "type": "address"
        }
      ],
      "stateMutability": "view",
      "type": "function",
      "constant": true
    },
    {
      "inputs": [],
      "name": "renounceOwnership",
      "outputs": [],
      "stateMutability": "nonpayable",
      "type": "function"
    },
    {
      "inputs": [
        {
          "internalType": "address",
          "name": "from",
          "type": "address"
        },
        {
          "internalType": "address",
          "name": "to",
          "type": "address"
        },
        {
          "internalType": "uint256",
          "name": "tokenId",
          "type": "uint256"
        }
      ],
      "name": "safeTransferFrom",
      "outputs": [],
      "stateMutability": "nonpayable",
      "type": "function"
    },
    {
      "inputs": [
        {
          "internalType": "address",
          "name": "from",
          "type": "address"
        },
        {
          "internalType": "address",
          "name": "to",
          "type": "address"
        },
        {
          "internalType": "uint256",
          "name": "tokenId",
          "type": "uint256"
        },
        {
          "internalType": "bytes",
          "name": "data",
          "type": "bytes"
        }
      ],
      "name": "safeTransferFrom",
      "outputs": [],
      "stateMutability": "nonpayable",
      "type": "function"
    },
    {
      "inputs": [
        {
          "internalType": "address",
          "name": "operator",
          "type": "address"
        },
        {
          "internalType": "bool",
          "name": "approved",
          "type": "bool"
        }
      ],
      "name": "setApprovalForAll",
      "outputs": [],
      "stateMutability": "nonpayable",
      "type": "function"
    },
    {
      "inputs": [
        {
          "internalType": "bytes4",
          "name": "interfaceId",
          "type": "bytes4"
        }
      ],
      "name": "supportsInterface",
      "outputs": [
        {
          "internalType": "bool",
          "name": "",
          "type": "bool"
        }
      ],
      "stateMutability": "view",
      "type": "function",
      "constant": true
    },
    {
      "inputs": [],
      "name": "symbol",
      "outputs": [
        {
          "internalType": "string",
          "name": "",
          "type": "string"
        }
      ],
      "stateMutability": "view",
      "type": "function",
      "constant": true
    },
    {
      "inputs": [
        {
          "internalType": "uint256",
          "name": "index",
          "type": "uint256"
        }
      ],
      "name": "tokenByIndex",
      "outputs": [
        {
          "internalType": "uint256",
          "name": "",
          "type": "uint256"
        }
      ],
      "stateMutability": "view",
      "type": "function",
      "constant": true
    },
    {
      "inputs": [
        {
          "internalType": "address",
          "name": "owner",
          "type": "address"
        },
        {
          "internalType": "uint256",
          "name": "index",
          "type": "uint256"
        }
      ],
      "name": "tokenOfOwnerByIndex",
      "outputs": [
        {
          "internalType": "uint256",
          "name": "",
          "type": "uint256"
        }
      ],
      "stateMutability": "view",
      "type": "function",
      "constant": true
    },
    {
      "inputs": [],
      "name": "totalNFT",
      "outputs": [
        {
          "internalType": "uint256",
          "name": "",
          "type": "uint256"
        }
      ],
      "stateMutability": "view",
      "type": "function",
      "constant": true
    },
    {
      "inputs": [],
      "name": "totalSupply",
      "outputs": [
        {
          "internalType": "uint256",
          "name": "",
          "type": "uint256"
        }
      ],
      "stateMutability": "view",
      "type": "function",
      "constant": true
    },
    {
      "inputs": [
        {
          "internalType": "address",
          "name": "from",
          "type": "address"
        },
        {
          "internalType": "address",
          "name": "to",
          "type": "address"
        },
        {
          "internalType": "uint256",
          "name": "tokenId",
          "type": "uint256"
        }
      ],
      "name": "transferFrom",
      "outputs": [],
      "stateMutability": "nonpayable",
      "type": "function"
    },
    {
      "inputs": [
        {
          "internalType": "address",
          "name": "newOwner",
          "type": "address"
        }
      ],
      "name": "transferOwnership",
      "outputs": [],
      "stateMutability": "nonpayable",
      "type": "function"
    },
    {
      "inputs": [
        {
          "internalType": "uint256",
          "name": "mintValue",
          "type": "uint256"
        },
        {
          "internalType": "uint256",
          "name": "kaiSwap",
          "type": "uint256"
        }
      ],
      "name": "mintNFT",
      "outputs": [],
      "stateMutability": "nonpayable",
      "type": "function"
    },
    {
      "inputs": [
        {
          "internalType": "uint256",
          "name": "_tokenId",
          "type": "uint256"
        }
      ],
      "name": "tokenURI",
      "outputs": [
        {
          "internalType": "string",
          "name": "",
          "type": "string"
        }
      ],
      "stateMutability": "view",
      "type": "function",
      "constant": true
    }
  ],
  "bytecode": "0x6080604052601e600b5560405180608001604052806051815260200162003dc060519139600c9081620000339190620004c3565b503480156200004157600080fd5b5060405162003e1138038062003e11833981810160405281019062000067919062000614565b6040518060400160405280600981526020017f48616a696e43686f6900000000000000000000000000000000000000000000008152506040518060400160405280600481526020017f43686f69000000000000000000000000000000000000000000000000000000008152508160009081620000e49190620004c3565b508060019081620000f69190620004c3565b505050620001196200010d6200017b60201b60201c565b6200018360201b60201c565b600c808162000129919062000673565b50600b54600b8190555080600d60006101000a81548173ffffffffffffffffffffffffffffffffffffffff021916908373ffffffffffffffffffffffffffffffffffffffff1602179055505062000774565b600033905090565b6000600a60009054906101000a900473ffffffffffffffffffffffffffffffffffffffff16905081600a60006101000a81548173ffffffffffffffffffffffffffffffffffffffff021916908373ffffffffffffffffffffffffffffffffffffffff1602179055508173ffffffffffffffffffffffffffffffffffffffff168173ffffffffffffffffffffffffffffffffffffffff167f8be0079c531659141344cd1fd0a4f28419497f9722a3daafe3b4186f6b6457e060405160405180910390a35050565b600081519050919050565b7f4e487b7100000000000000000000000000000000000000000000000000000000600052604160045260246000fd5b7f4e487b7100000000000000000000000000000000000000000000000000000000600052602260045260246000fd5b60006002820490506001821680620002cb57607f821691505b602082108103620002e157620002e062000283565b5b50919050565b60008190508160005260206000209050919050565b60006020601f8301049050919050565b600082821b905092915050565b6000600883026200034b7fffffffffffffffffffffffffffffffffffffffffffffffffffffffffffffffff826200030c565b6200035786836200030c565b95508019841693508086168417925050509392505050565b6000819050919050565b6000819050919050565b6000620003a46200039e62000398846200036f565b62000379565b6200036f565b9050919050565b6000819050919050565b620003c08362000383565b620003d8620003cf82620003ab565b84845462000319565b825550505050565b600090565b620003ef620003e0565b620003fc818484620003b5565b505050565b5b81811015620004245762000418600082620003e5565b60018101905062000402565b5050565b601f82111562000473576200043d81620002e7565b6200044884620002fc565b8101602085101562000458578190505b620004706200046785620002fc565b83018262000401565b50505b505050565b600082821c905092915050565b6000620004986000198460080262000478565b1980831691505092915050565b6000620004b3838362000485565b9150826002028217905092915050565b620004ce8262000249565b67ffffffffffffffff811115620004ea57620004e962000254565b5b620004f68254620002b2565b6200050382828562000428565b600060209050601f8311600181146200053b576000841562000526578287015190505b620005328582620004a5565b865550620005a2565b601f1984166200054b86620002e7565b60005b8281101562000575578489015182556001820191506020850194506020810190506200054e565b8683101562000595578489015162000591601f89168262000485565b8355505b6001600288020188555050505b505050505050565b600080fd5b600073ffffffffffffffffffffffffffffffffffffffff82169050919050565b6000620005dc82620005af565b9050919050565b620005ee81620005cf565b8114620005fa57600080fd5b50565b6000815190506200060e81620005e3565b92915050565b6000602082840312156200062d576200062c620005aa565b5b60006200063d84828501620005fd565b91505092915050565b6000815490506200065781620002b2565b9050919050565b60008190508160005260206000209050919050565b8181036200068357505062000772565b6200068e8262000646565b67ffffffffffffffff811115620006aa57620006a962000254565b5b620006b68254620002b2565b620006c382828562000428565b6000601f831160018114620006f75760008415620006e2578287015490505b620006ee8582620004a5565b8655506200076b565b601f19841662000707876200065e565b96506200071486620002e7565b60005b828110156200073e5784890154825560018201915060018501945060208101905062000717565b868310156200075e57848901546200075a601f89168262000485565b8355505b6001600288020188555050505b5050505050505b565b61363c80620007846000396000f3fe608060405234801561001057600080fd5b50600436106101415760003560e01c80636352211e116100b8578063a22cb4651161007c578063a22cb46514610378578063b88d4fde14610394578063c48283ff146103b0578063c87b56dd146103cc578063e985e9c5146103fc578063f2fde38b1461042c57610141565b80636352211e146102d257806370a0823114610302578063715018a6146103325780638da5cb5b1461033c57806395d89b411461035a57610141565b8063095ea7b31161010a578063095ea7b31461020057806318160ddd1461021c57806323b872dd1461023a5780632f745c591461025657806342842e0e146102865780634f6ccce7146102a257610141565b80624563791461014657806301ffc9a71461016457806303ee438c1461019457806306fdde03146101b2578063081812fc146101d0575b600080fd5b61014e610448565b60405161015b91906122d9565b60405180910390f35b61017e60048036038101906101799190612360565b61044e565b60405161018b91906123a8565b60405180910390f35b61019c6104c8565b6040516101a99190612453565b60405180910390f35b6101ba610556565b6040516101c79190612453565b60405180910390f35b6101ea60048036038101906101e591906124a1565b6105e8565b6040516101f7919061250f565b60405180910390f35b61021a60048036038101906102159190612556565b61062e565b005b610224610745565b60405161023191906122d9565b60405180910390f35b610254600480360381019061024f9190612596565b610752565b005b610270600480360381019061026b9190612556565b6107b2565b60405161027d91906122d9565b60405180910390f35b6102a0600480360381019061029b9190612596565b610857565b005b6102bc60048036038101906102b791906124a1565b610877565b6040516102c991906122d9565b60405180910390f35b6102ec60048036038101906102e791906124a1565b6108e8565b6040516102f9919061250f565b60405180910390f35b61031c600480360381019061031791906125e9565b61096e565b60405161032991906122d9565b60405180910390f35b61033a610a25565b005b610344610a39565b604051610351919061250f565b60405180910390f35b610362610a63565b60405161036f9190612453565b60405180910390f35b610392600480360381019061038d9190612642565b610af5565b005b6103ae60048036038101906103a991906127b7565b610b0b565b005b6103ca60048036038101906103c5919061283a565b610b6d565b005b6103e660048036038101906103e191906124a1565b610c8d565b6040516103f39190612453565b60405180910390f35b6104166004803603810190610411919061287a565b610cc1565b60405161042391906123a8565b60405180910390f35b610446600480360381019061044191906125e9565b610d55565b005b600b5481565b60007f780e9d63000000000000000000000000000000000000000000000000000000007bffffffffffffffffffffffffffffffffffffffffffffffffffffffff1916827bffffffffffffffffffffffffffffffffffffffffffffffffffffffff191614806104c157506104c082610dd8565b5b9050919050565b600c80546104d5906128e9565b80601f0160208091040260200160405190810160405280929190818152602001828054610501906128e9565b801561054e5780601f106105235761010080835404028352916020019161054e565b820191906000526020600020905b81548152906001019060200180831161053157829003601f168201915b505050505081565b606060008054610565906128e9565b80601f0160208091040260200160405190810160405280929190818152602001828054610591906128e9565b80156105de5780601f106105b3576101008083540402835291602001916105de565b820191906000526020600020905b8154815290600101906020018083116105c157829003601f168201915b5050505050905090565b60006105f382610eba565b6004600083815260200190815260200160002060009054906101000a900473ffffffffffffffffffffffffffffffffffffffff169050919050565b6000610639826108e8565b90508073ffffffffffffffffffffffffffffffffffffffff168373ffffffffffffffffffffffffffffffffffffffff16036106a9576040517f08c379a00000000000000000000000000000000000000000000000000000000081526004016106a09061298c565b60405180910390fd5b8073ffffffffffffffffffffffffffffffffffffffff166106c8610f05565b73ffffffffffffffffffffffffffffffffffffffff1614806106f757506106f6816106f1610f05565b610cc1565b5b610736576040517f08c379a000000000000000000000000000000000000000000000000000000000815260040161072d90612a1e565b60405180910390fd5b6107408383610f0d565b505050565b6000600880549050905090565b61076361075d610f05565b82610fc6565b6107a2576040517f08c379a000000000000000000000000000000000000000000000000000000000815260040161079990612ab0565b60405180910390fd5b6107ad83838361105b565b505050565b60006107bd8361096e565b82106107fe576040517f08c379a00000000000000000000000000000000000000000000000000000000081526004016107f590612b42565b60405180910390fd5b600660008473ffffffffffffffffffffffffffffffffffffffff1673ffffffffffffffffffffffffffffffffffffffff168152602001908152602001600020600083815260200190815260200160002054905092915050565b61087283838360405180602001604052806000815250610b0b565b505050565b6000610881610745565b82106108c2576040517f08c379a00000000000000000000000000000000000000000000000000000000081526004016108b990612bd4565b60405180910390fd5b600882815481106108d6576108d5612bf4565b5b90600052602060002001549050919050565b6000806108f483611354565b9050600073ffffffffffffffffffffffffffffffffffffffff168173ffffffffffffffffffffffffffffffffffffffff1603610965576040517f08c379a000000000000000000000000000000000000000000000000000000000815260040161095c90612c6f565b60405180910390fd5b80915050919050565b60008073ffffffffffffffffffffffffffffffffffffffff168273ffffffffffffffffffffffffffffffffffffffff16036109de576040517f08c379a00000000000000000000000000000000000000000000000000000000081526004016109d590612d01565b60405180910390fd5b600360008373ffffffffffffffffffffffffffffffffffffffff1673ffffffffffffffffffffffffffffffffffffffff168152602001908152602001600020549050919050565b610a2d611391565b610a37600061140f565b565b6000600a60009054906101000a900473ffffffffffffffffffffffffffffffffffffffff16905090565b606060018054610a72906128e9565b80601f0160208091040260200160405190810160405280929190818152602001828054610a9e906128e9565b8015610aeb5780601f10610ac057610100808354040283529160200191610aeb565b820191906000526020600020905b815481529060010190602001808311610ace57829003601f168201915b5050505050905090565b610b07610b00610f05565b83836114d5565b5050565b610b1c610b16610f05565b83610fc6565b610b5b576040517f08c379a0000000000000000000000000000000000000000000000000000000008152600401610b5290612ab0565b60405180910390fd5b610b6784848484611641565b50505050565b610b75610745565b600b5411610bb8576040517f08c379a0000000000000000000000000000000000000000000000000000000008152600401610baf90612d6d565b60405180910390fd5b60005b82811015610bf95760006001610bcf610745565b610bd99190612dbc565b9050610be5338261169d565b508080610bf190612df0565b915050610bbb565b50600d60009054906101000a900473ffffffffffffffffffffffffffffffffffffffff1673ffffffffffffffffffffffffffffffffffffffff1663bc3ad14582336040518363ffffffff1660e01b8152600401610c57929190612e38565b600060405180830381600087803b158015610c7157600080fd5b505af1158015610c85573d6000803e3d6000fd5b505050505050565b6060600c610c9a836118ba565b604051602001610cab929190612fcd565b6040516020818303038152906040529050919050565b6000600560008473ffffffffffffffffffffffffffffffffffffffff1673ffffffffffffffffffffffffffffffffffffffff16815260200190815260200160002060008373ffffffffffffffffffffffffffffffffffffffff1673ffffffffffffffffffffffffffffffffffffffff16815260200190815260200160002060009054906101000a900460ff16905092915050565b610d5d611391565b600073ffffffffffffffffffffffffffffffffffffffff168173ffffffffffffffffffffffffffffffffffffffff1603610dcc576040517f08c379a0000000000000000000000000000000000000000000000000000000008152600401610dc390613079565b60405180910390fd5b610dd58161140f565b50565b60007f80ac58cd000000000000000000000000000000000000000000000000000000007bffffffffffffffffffffffffffffffffffffffffffffffffffffffff1916827bffffffffffffffffffffffffffffffffffffffffffffffffffffffff19161480610ea357507f5b5e139f000000000000000000000000000000000000000000000000000000007bffffffffffffffffffffffffffffffffffffffffffffffffffffffff1916827bffffffffffffffffffffffffffffffffffffffffffffffffffffffff1916145b80610eb35750610eb282611988565b5b9050919050565b610ec3816119f2565b610f02576040517f08c379a0000000000000000000000000000000000000000000000000000000008152600401610ef990612c6f565b60405180910390fd5b50565b600033905090565b816004600083815260200190815260200160002060006101000a81548173ffffffffffffffffffffffffffffffffffffffff021916908373ffffffffffffffffffffffffffffffffffffffff160217905550808273ffffffffffffffffffffffffffffffffffffffff16610f80836108e8565b73ffffffffffffffffffffffffffffffffffffffff167f8c5be1e5ebec7d5bd14f71427d1e84f3dd0314c0f7b2291e5b200ac8c7c3b92560405160405180910390a45050565b600080610fd2836108e8565b90508073ffffffffffffffffffffffffffffffffffffffff168473ffffffffffffffffffffffffffffffffffffffff16148061101457506110138185610cc1565b5b8061105257508373ffffffffffffffffffffffffffffffffffffffff1661103a846105e8565b73ffffffffffffffffffffffffffffffffffffffff16145b91505092915050565b8273ffffffffffffffffffffffffffffffffffffffff1661107b826108e8565b73ffffffffffffffffffffffffffffffffffffffff16146110d1576040517f08c379a00000000000000000000000000000000000000000000000000000000081526004016110c89061310b565b60405180910390fd5b600073ffffffffffffffffffffffffffffffffffffffff168273ffffffffffffffffffffffffffffffffffffffff1603611140576040517f08c379a00000000000000000000000000000000000000000000000000000000081526004016111379061319d565b60405180910390fd5b61114d8383836001611a33565b8273ffffffffffffffffffffffffffffffffffffffff1661116d826108e8565b73ffffffffffffffffffffffffffffffffffffffff16146111c3576040517f08c379a00000000000000000000000000000000000000000000000000000000081526004016111ba9061310b565b60405180910390fd5b6004600082815260200190815260200160002060006101000a81549073ffffffffffffffffffffffffffffffffffffffff02191690556001600360008573ffffffffffffffffffffffffffffffffffffffff1673ffffffffffffffffffffffffffffffffffffffff168152602001908152602001600020600082825403925050819055506001600360008473ffffffffffffffffffffffffffffffffffffffff1673ffffffffffffffffffffffffffffffffffffffff16815260200190815260200160002060008282540192505081905550816002600083815260200190815260200160002060006101000a81548173ffffffffffffffffffffffffffffffffffffffff021916908373ffffffffffffffffffffffffffffffffffffffff160217905550808273ffffffffffffffffffffffffffffffffffffffff168473ffffffffffffffffffffffffffffffffffffffff167fddf252ad1be2c89b69c2b068fc378daa952ba7f163c4a11628f55a4df523b3ef60405160405180910390a461134f8383836001611b91565b505050565b60006002600083815260200190815260200160002060009054906101000a900473ffffffffffffffffffffffffffffffffffffffff169050919050565b611399610f05565b73ffffffffffffffffffffffffffffffffffffffff166113b7610a39565b73ffffffffffffffffffffffffffffffffffffffff161461140d576040517f08c379a000000000000000000000000000000000000000000000000000000000815260040161140490613209565b60405180910390fd5b565b6000600a60009054906101000a900473ffffffffffffffffffffffffffffffffffffffff16905081600a60006101000a81548173ffffffffffffffffffffffffffffffffffffffff021916908373ffffffffffffffffffffffffffffffffffffffff1602179055508173ffffffffffffffffffffffffffffffffffffffff168173ffffffffffffffffffffffffffffffffffffffff167f8be0079c531659141344cd1fd0a4f28419497f9722a3daafe3b4186f6b6457e060405160405180910390a35050565b8173ffffffffffffffffffffffffffffffffffffffff168373ffffffffffffffffffffffffffffffffffffffff1603611543576040517f08c379a000000000000000000000000000000000000000000000000000000000815260040161153a90613275565b60405180910390fd5b80600560008573ffffffffffffffffffffffffffffffffffffffff1673ffffffffffffffffffffffffffffffffffffffff16815260200190815260200160002060008473ffffffffffffffffffffffffffffffffffffffff1673ffffffffffffffffffffffffffffffffffffffff16815260200190815260200160002060006101000a81548160ff0219169083151502179055508173ffffffffffffffffffffffffffffffffffffffff168373ffffffffffffffffffffffffffffffffffffffff167f17307eab39ab6107e8899845ad3d59bd9653f200f220920489ca2b5937696c318360405161163491906123a8565b60405180910390a3505050565b61164c84848461105b565b61165884848484611b97565b611697576040517f08c379a000000000000000000000000000000000000000000000000000000000815260040161168e90613307565b60405180910390fd5b50505050565b600073ffffffffffffffffffffffffffffffffffffffff168273ffffffffffffffffffffffffffffffffffffffff160361170c576040517f08c379a000000000000000000000000000000000000000000000000000000000815260040161170390613373565b60405180910390fd5b611715816119f2565b15611755576040517f08c379a000000000000000000000000000000000000000000000000000000000815260040161174c906133df565b60405180910390fd5b611763600083836001611a33565b61176c816119f2565b156117ac576040517f08c379a00000000000000000000000000000000000000000000000000000000081526004016117a3906133df565b60405180910390fd5b6001600360008473ffffffffffffffffffffffffffffffffffffffff1673ffffffffffffffffffffffffffffffffffffffff16815260200190815260200160002060008282540192505081905550816002600083815260200190815260200160002060006101000a81548173ffffffffffffffffffffffffffffffffffffffff021916908373ffffffffffffffffffffffffffffffffffffffff160217905550808273ffffffffffffffffffffffffffffffffffffffff16600073ffffffffffffffffffffffffffffffffffffffff167fddf252ad1be2c89b69c2b068fc378daa952ba7f163c4a11628f55a4df523b3ef60405160405180910390a46118b6600083836001611b91565b5050565b6060600060016118c984611d1e565b01905060008167ffffffffffffffff8111156118e8576118e761268c565b5b6040519080825280601f01601f19166020018201604052801561191a5781602001600182028036833780820191505090505b509050600082602001820190505b60011561197d578080600190039150507f3031323334353637383961626364656600000000000000000000000000000000600a86061a8153600a8581611971576119706133ff565b5b04945060008503611928575b819350505050919050565b60007f01ffc9a7000000000000000000000000000000000000000000000000000000007bffffffffffffffffffffffffffffffffffffffffffffffffffffffff1916827bffffffffffffffffffffffffffffffffffffffffffffffffffffffff1916149050919050565b60008073ffffffffffffffffffffffffffffffffffffffff16611a1483611354565b73ffffffffffffffffffffffffffffffffffffffff1614159050919050565b611a3f84848484611e71565b6001811115611a83576040517f08c379a0000000000000000000000000000000000000000000000000000000008152600401611a7a906134a0565b60405180910390fd5b6000829050600073ffffffffffffffffffffffffffffffffffffffff168573ffffffffffffffffffffffffffffffffffffffff1603611aca57611ac581611f97565b611b09565b8373ffffffffffffffffffffffffffffffffffffffff168573ffffffffffffffffffffffffffffffffffffffff1614611b0857611b078582611fe0565b5b5b600073ffffffffffffffffffffffffffffffffffffffff168473ffffffffffffffffffffffffffffffffffffffff1603611b4b57611b468161214d565b611b8a565b8473ffffffffffffffffffffffffffffffffffffffff168473ffffffffffffffffffffffffffffffffffffffff1614611b8957611b88848261221e565b5b5b5050505050565b50505050565b6000611bb88473ffffffffffffffffffffffffffffffffffffffff1661229d565b15611d11578373ffffffffffffffffffffffffffffffffffffffff1663150b7a02611be1610f05565b8786866040518563ffffffff1660e01b8152600401611c039493929190613515565b6020604051808303816000875af1925050508015611c3f57506040513d601f19601f82011682018060405250810190611c3c9190613576565b60015b611cc1573d8060008114611c6f576040519150601f19603f3d011682016040523d82523d6000602084013e611c74565b606091505b506000815103611cb9576040517f08c379a0000000000000000000000000000000000000000000000000000000008152600401611cb090613307565b60405180910390fd5b805181602001fd5b63150b7a0260e01b7bffffffffffffffffffffffffffffffffffffffffffffffffffffffff1916817bffffffffffffffffffffffffffffffffffffffffffffffffffffffff191614915050611d16565b600190505b949350505050565b600080600090507a184f03e93ff9f4daa797ed6e38ed64bf6a1f0100000000000000008310611d7c577a184f03e93ff9f4daa797ed6e38ed64bf6a1f0100000000000000008381611d7257611d716133ff565b5b0492506040810190505b6d04ee2d6d415b85acef81000000008310611db9576d04ee2d6d415b85acef81000000008381611daf57611dae6133ff565b5b0492506020810190505b662386f26fc100008310611de857662386f26fc100008381611dde57611ddd6133ff565b5b0492506010810190505b6305f5e1008310611e11576305f5e1008381611e0757611e066133ff565b5b0492506008810190505b6127108310611e36576127108381611e2c57611e2b6133ff565b5b0492506004810190505b60648310611e595760648381611e4f57611e4e6133ff565b5b0492506002810190505b600a8310611e68576001810190505b80915050919050565b6001811115611f9157600073ffffffffffffffffffffffffffffffffffffffff168473ffffffffffffffffffffffffffffffffffffffff1614611f055780600360008673ffffffffffffffffffffffffffffffffffffffff1673ffffffffffffffffffffffffffffffffffffffff1681526020019081526020016000206000828254611efd91906135a3565b925050819055505b600073ffffffffffffffffffffffffffffffffffffffff168373ffffffffffffffffffffffffffffffffffffffff1614611f905780600360008573ffffffffffffffffffffffffffffffffffffffff1673ffffffffffffffffffffffffffffffffffffffff1681526020019081526020016000206000828254611f889190612dbc565b925050819055505b5b50505050565b6008805490506009600083815260200190815260200160002081905550600881908060018154018082558091505060019003906000526020600020016000909190919091505550565b60006001611fed8461096e565b611ff791906135a3565b90506000600760008481526020019081526020016000205490508181146120dc576000600660008673ffffffffffffffffffffffffffffffffffffffff1673ffffffffffffffffffffffffffffffffffffffff168152602001908152602001600020600084815260200190815260200160002054905080600660008773ffffffffffffffffffffffffffffffffffffffff1673ffffffffffffffffffffffffffffffffffffffff168152602001908152602001600020600084815260200190815260200160002081905550816007600083815260200190815260200160002081905550505b6007600084815260200190815260200160002060009055600660008573ffffffffffffffffffffffffffffffffffffffff1673ffffffffffffffffffffffffffffffffffffffff16815260200190815260200160002060008381526020019081526020016000206000905550505050565b6000600160088054905061216191906135a3565b905060006009600084815260200190815260200160002054905060006008838154811061219157612190612bf4565b5b9060005260206000200154905080600883815481106121b3576121b2612bf4565b5b906000526020600020018190555081600960008381526020019081526020016000208190555060096000858152602001908152602001600020600090556008805480612202576122016135d7565b5b6001900381819060005260206000200160009055905550505050565b60006122298361096e565b905081600660008573ffffffffffffffffffffffffffffffffffffffff1673ffffffffffffffffffffffffffffffffffffffff168152602001908152602001600020600083815260200190815260200160002081905550806007600084815260200190815260200160002081905550505050565b6000808273ffffffffffffffffffffffffffffffffffffffff163b119050919050565b6000819050919050565b6122d3816122c0565b82525050565b60006020820190506122ee60008301846122ca565b92915050565b6000604051905090565b600080fd5b600080fd5b60007fffffffff0000000000000000000000000000000000000000000000000000000082169050919050565b61233d81612308565b811461234857600080fd5b50565b60008135905061235a81612334565b92915050565b600060208284031215612376576123756122fe565b5b60006123848482850161234b565b91505092915050565b60008115159050919050565b6123a28161238d565b82525050565b60006020820190506123bd6000830184612399565b92915050565b600081519050919050565b600082825260208201905092915050565b60005b838110156123fd5780820151818401526020810190506123e2565b60008484015250505050565b6000601f19601f8301169050919050565b6000612425826123c3565b61242f81856123ce565b935061243f8185602086016123df565b61244881612409565b840191505092915050565b6000602082019050818103600083015261246d818461241a565b905092915050565b61247e816122c0565b811461248957600080fd5b50565b60008135905061249b81612475565b92915050565b6000602082840312156124b7576124b66122fe565b5b60006124c58482850161248c565b91505092915050565b600073ffffffffffffffffffffffffffffffffffffffff82169050919050565b60006124f9826124ce565b9050919050565b612509816124ee565b82525050565b60006020820190506125246000830184612500565b92915050565b612533816124ee565b811461253e57600080fd5b50565b6000813590506125508161252a565b92915050565b6000806040838503121561256d5761256c6122fe565b5b600061257b85828601612541565b925050602061258c8582860161248c565b9150509250929050565b6000806000606084860312156125af576125ae6122fe565b5b60006125bd86828701612541565b93505060206125ce86828701612541565b92505060406125df8682870161248c565b9150509250925092565b6000602082840312156125ff576125fe6122fe565b5b600061260d84828501612541565b91505092915050565b61261f8161238d565b811461262a57600080fd5b50565b60008135905061263c81612616565b92915050565b60008060408385031215612659576126586122fe565b5b600061266785828601612541565b92505060206126788582860161262d565b9150509250929050565b600080fd5b600080fd5b7f4e487b7100000000000000000000000000000000000000000000000000000000600052604160045260246000fd5b6126c482612409565b810181811067ffffffffffffffff821117156126e3576126e261268c565b5b80604052505050565b60006126f66122f4565b905061270282826126bb565b919050565b600067ffffffffffffffff8211156127225761272161268c565b5b61272b82612409565b9050602081019050919050565b82818337600083830152505050565b600061275a61275584612707565b6126ec565b90508281526020810184848401111561277657612775612687565b5b612781848285612738565b509392505050565b600082601f83011261279e5761279d612682565b5b81356127ae848260208601612747565b91505092915050565b600080600080608085870312156127d1576127d06122fe565b5b60006127df87828801612541565b94505060206127f087828801612541565b93505060406128018782880161248c565b925050606085013567ffffffffffffffff81111561282257612821612303565b5b61282e87828801612789565b91505092959194509250565b60008060408385031215612851576128506122fe565b5b600061285f8582860161248c565b92505060206128708582860161248c565b9150509250929050565b60008060408385031215612891576128906122fe565b5b600061289f85828601612541565b92505060206128b085828601612541565b9150509250929050565b7f4e487b7100000000000000000000000000000000000000000000000000000000600052602260045260246000fd5b6000600282049050600182168061290157607f821691505b602082108103612914576129136128ba565b5b50919050565b7f4552433732313a20617070726f76616c20746f2063757272656e74206f776e6560008201527f7200000000000000000000000000000000000000000000000000000000000000602082015250565b60006129766021836123ce565b91506129818261291a565b604082019050919050565b600060208201905081810360008301526129a581612969565b9050919050565b7f4552433732313a20617070726f76652063616c6c6572206973206e6f7420746f60008201527f6b656e206f776e6572206f7220617070726f76656420666f7220616c6c000000602082015250565b6000612a08603d836123ce565b9150612a13826129ac565b604082019050919050565b60006020820190508181036000830152612a37816129fb565b9050919050565b7f4552433732313a2063616c6c6572206973206e6f7420746f6b656e206f776e6560008201527f72206f7220617070726f76656400000000000000000000000000000000000000602082015250565b6000612a9a602d836123ce565b9150612aa582612a3e565b604082019050919050565b60006020820190508181036000830152612ac981612a8d565b9050919050565b7f455243373231456e756d657261626c653a206f776e657220696e646578206f7560008201527f74206f6620626f756e6473000000000000000000000000000000000000000000602082015250565b6000612b2c602b836123ce565b9150612b3782612ad0565b604082019050919050565b60006020820190508181036000830152612b5b81612b1f565b9050919050565b7f455243373231456e756d657261626c653a20676c6f62616c20696e646578206f60008201527f7574206f6620626f756e64730000000000000000000000000000000000000000602082015250565b6000612bbe602c836123ce565b9150612bc982612b62565b604082019050919050565b60006020820190508181036000830152612bed81612bb1565b9050919050565b7f4e487b7100000000000000000000000000000000000000000000000000000000600052603260045260246000fd5b7f4552433732313a20696e76616c696420746f6b656e2049440000000000000000600082015250565b6000612c596018836123ce565b9150612c6482612c23565b602082019050919050565b60006020820190508181036000830152612c8881612c4c565b9050919050565b7f4552433732313a2061646472657373207a65726f206973206e6f74206120766160008201527f6c6964206f776e65720000000000000000000000000000000000000000000000602082015250565b6000612ceb6029836123ce565b9150612cf682612c8f565b604082019050919050565b60006020820190508181036000830152612d1a81612cde565b9050919050565b7f4e6f206d6f7265206d696e742e00000000000000000000000000000000000000600082015250565b6000612d57600d836123ce565b9150612d6282612d21565b602082019050919050565b60006020820190508181036000830152612d8681612d4a565b9050919050565b7f4e487b7100000000000000000000000000000000000000000000000000000000600052601160045260246000fd5b6000612dc7826122c0565b9150612dd2836122c0565b9250828201905080821115612dea57612de9612d8d565b5b92915050565b6000612dfb826122c0565b91507fffffffffffffffffffffffffffffffffffffffffffffffffffffffffffffffff8203612e2d57612e2c612d8d565b5b600182019050919050565b6000604082019050612e4d60008301856122ca565b612e5a6020830184612500565b9392505050565b600081905092915050565b60008190508160005260206000209050919050565b60008154612e8e816128e9565b612e988186612e61565b94506001821660008114612eb35760018114612ec857612efb565b60ff1983168652811515820286019350612efb565b612ed185612e6c565b60005b83811015612ef357815481890152600182019150602081019050612ed4565b838801955050505b50505092915050565b7f2f00000000000000000000000000000000000000000000000000000000000000600082015250565b6000612f3a600183612e61565b9150612f4582612f04565b600182019050919050565b6000612f5b826123c3565b612f658185612e61565b9350612f758185602086016123df565b80840191505092915050565b7f2e6a736f6e000000000000000000000000000000000000000000000000000000600082015250565b6000612fb7600583612e61565b9150612fc282612f81565b600582019050919050565b6000612fd98285612e81565b9150612fe482612f2d565b9150612ff08284612f50565b9150612ffb82612faa565b91508190509392505050565b7f4f776e61626c653a206e6577206f776e657220697320746865207a65726f206160008201527f6464726573730000000000000000000000000000000000000000000000000000602082015250565b60006130636026836123ce565b915061306e82613007565b604082019050919050565b6000602082019050818103600083015261309281613056565b9050919050565b7f4552433732313a207472616e736665722066726f6d20696e636f72726563742060008201527f6f776e6572000000000000000000000000000000000000000000000000000000602082015250565b60006130f56025836123ce565b915061310082613099565b604082019050919050565b60006020820190508181036000830152613124816130e8565b9050919050565b7f4552433732313a207472616e7366657220746f20746865207a65726f2061646460008201527f7265737300000000000000000000000000000000000000000000000000000000602082015250565b60006131876024836123ce565b91506131928261312b565b604082019050919050565b600060208201905081810360008301526131b68161317a565b9050919050565b7f4f776e61626c653a2063616c6c6572206973206e6f7420746865206f776e6572600082015250565b60006131f36020836123ce565b91506131fe826131bd565b602082019050919050565b60006020820190508181036000830152613222816131e6565b9050919050565b7f4552433732313a20617070726f766520746f2063616c6c657200000000000000600082015250565b600061325f6019836123ce565b915061326a82613229565b602082019050919050565b6000602082019050818103600083015261328e81613252565b9050919050565b7f4552433732313a207472616e7366657220746f206e6f6e20455243373231526560008201527f63656976657220696d706c656d656e7465720000000000000000000000000000602082015250565b60006132f16032836123ce565b91506132fc82613295565b604082019050919050565b60006020820190508181036000830152613320816132e4565b9050919050565b7f4552433732313a206d696e7420746f20746865207a65726f2061646472657373600082015250565b600061335d6020836123ce565b915061336882613327565b602082019050919050565b6000602082019050818103600083015261338c81613350565b9050919050565b7f4552433732313a20746f6b656e20616c7265616479206d696e74656400000000600082015250565b60006133c9601c836123ce565b91506133d482613393565b602082019050919050565b600060208201905081810360008301526133f8816133bc565b9050919050565b7f4e487b7100000000000000000000000000000000000000000000000000000000600052601260045260246000fd5b7f455243373231456e756d657261626c653a20636f6e736563757469766520747260008201527f616e7366657273206e6f7420737570706f727465640000000000000000000000602082015250565b600061348a6035836123ce565b91506134958261342e565b604082019050919050565b600060208201905081810360008301526134b98161347d565b9050919050565b600081519050919050565b600082825260208201905092915050565b60006134e7826134c0565b6134f181856134cb565b93506135018185602086016123df565b61350a81612409565b840191505092915050565b600060808201905061352a6000830187612500565b6135376020830186612500565b61354460408301856122ca565b818103606083015261355681846134dc565b905095945050505050565b60008151905061357081612334565b92915050565b60006020828403121561358c5761358b6122fe565b5b600061359a84828501613561565b91505092915050565b60006135ae826122c0565b91506135b9836122c0565b92508282039050818111156135d1576135d0612d8d565b5b92915050565b7f4e487b7100000000000000000000000000000000000000000000000000000000600052603160045260246000fdfea26469706673582212205aa4028a9a502076bda4d2a8729cfda5ac03b4c8b51f2a954bcefd58cb49f1c264736f6c6343000811003368747470733a2f2f676174657761792e70696e6174612e636c6f75642f697066732f516d53427a64566e56355a456b5773456e47755356425568716e4a5732465a5454346a54627953777868336b59472f",
  "immutableReferences": {},
  "source": "// SPDX-License-Identifier: MIT\r\n\r\npragma solidity ^0.8.17;\r\n\r\nimport \"../node_modules/openzeppelin-solidity/contracts/token/ERC721/extensions/ERC721Enumerable.sol\";\r\nimport \"../node_modules/openzeppelin-solidity/contracts/utils/Strings.sol\";\r\nimport \"../node_modules/openzeppelin-solidity/contracts/access/Ownable.sol\";\r\nimport \"./Kai2Token.sol\";\r\n\r\ncontract MintNFT is ERC721Enumerable, Ownable {\r\n\r\n    uint public totalNFT = 30; // nft \r\n    // uint public mintPrice;\r\n    string public metadataURI = \"https://gateway.pinata.cloud/ipfs/QmSBzdVnV5ZEkWsEnGuSVBUhqnJW2FZTT4jTbySwxh3kYG/\";\r\n    \r\n    Kai2Token tokenContract;\r\n\r\n    //      init   \r\n    constructor(address _tokenAddress) ERC721(\"HajinChoi\", \"Choi\") {\r\n        metadataURI = metadataURI;\r\n        totalNFT = totalNFT;\r\n        tokenContract = Kai2Token(payable(_tokenAddress));\r\n    }\r\n\r\n    // erc721 _mint      \r\n    function mintNFT(uint mintValue, uint kaiSwap) public {\r\n        require(totalNFT > totalSupply(), \"No more mint.\"); // totalSupply()   nft  \r\n        // require \r\n        for(uint i=0;i < mintValue; i++) {\r\n            uint tokenId = totalSupply() + 1;\r\n            _mint(msg.sender, tokenId);\r\n        }\r\n        tokenContract.buyNft(kaiSwap,msg.sender);\r\n    }\r\n\r\n    // nft json \r\n    function tokenURI(uint _tokenId) public override view returns (string memory) {\r\n        return string(abi.encodePacked(metadataURI, '/', Strings.toString(_tokenId), '.json'));\r\n    }\r\n        //   , bool approved   true  \r\n        //    \r\n        // mintNFT  \r\n        //       , \r\n        //   nft      \r\n        //          nft   \r\n        // function setApprovalForAll(address operator, bool approved) public virtual override {\r\n        // _setApprovalForAll(_msgSender(), operator, approved);\r\n        // }\r\n\r\n}",
  "sourcePath": "C:\\Users\\an\\Desktop\\teamProject\\E-SEKAI\\sol\\contracts\\MintNFT.sol",
  "compiler": {
    "name": "solc",
    "version": "0.8.17+commit.8df45f5f.Emscripten.clang"
  },
  "schemaVersion": "3.4.13",
  "updatedAt": "2023-03-08T10:15:39.265Z",
  "networkType": "ethereum",
  "devdoc": {
    "kind": "dev",
    "methods": {
      "approve(address,uint256)": {
        "details": "See {IERC721-approve}."
      },
      "balanceOf(address)": {
        "details": "See {IERC721-balanceOf}."
      },
      "getApproved(uint256)": {
        "details": "See {IERC721-getApproved}."
      },
      "isApprovedForAll(address,address)": {
        "details": "See {IERC721-isApprovedForAll}."
      },
      "name()": {
        "details": "See {IERC721Metadata-name}."
      },
      "owner()": {
        "details": "Returns the address of the current owner."
      },
      "ownerOf(uint256)": {
        "details": "See {IERC721-ownerOf}."
      },
      "renounceOwnership()": {
        "details": "Leaves the contract without owner. It will not be possible to call `onlyOwner` functions anymore. Can only be called by the current owner. NOTE: Renouncing ownership will leave the contract without an owner, thereby removing any functionality that is only available to the owner."
      },
      "safeTransferFrom(address,address,uint256)": {
        "details": "See {IERC721-safeTransferFrom}."
      },
      "safeTransferFrom(address,address,uint256,bytes)": {
        "details": "See {IERC721-safeTransferFrom}."
      },
      "setApprovalForAll(address,bool)": {
        "details": "See {IERC721-setApprovalForAll}."
      },
      "supportsInterface(bytes4)": {
        "details": "See {IERC165-supportsInterface}."
      },
      "symbol()": {
        "details": "See {IERC721Metadata-symbol}."
      },
      "tokenByIndex(uint256)": {
        "details": "See {IERC721Enumerable-tokenByIndex}."
      },
      "tokenOfOwnerByIndex(address,uint256)": {
        "details": "See {IERC721Enumerable-tokenOfOwnerByIndex}."
      },
      "totalSupply()": {
        "details": "See {IERC721Enumerable-totalSupply}."
      },
      "transferFrom(address,address,uint256)": {
        "details": "See {IERC721-transferFrom}."
      },
      "transferOwnership(address)": {
        "details": "Transfers ownership of the contract to a new account (`newOwner`). Can only be called by the current owner."
      }
    },
    "version": 1
  },
  "userdoc": {
    "kind": "user",
    "methods": {},
    "version": 1
  }
}