{
  "contractName": "Sale",
  "abi": [
    {
      "inputs": [
        {
          "internalType": "address",
          "name": "_mintAddress",
          "type": "address"
        }
      ],
      "stateMutability": "nonpayable",
      "type": "constructor"
    },
    {
      "anonymous": false,
      "inputs": [
        {
          "indexed": true,
          "internalType": "address",
          "name": "previousOwner",
          "type": "address"
        },
        {
          "indexed": true,
          "internalType": "address",
          "name": "newOwner",
          "type": "address"
        }
      ],
      "name": "OwnershipTransferred",
      "type": "event"
    },
    {
      "inputs": [],
      "name": "owner",
      "outputs": [
        {
          "internalType": "address",
          "name": "",
          "type": "address"
        }
      ],
      "stateMutability": "view",
      "type": "function",
      "constant": true
    },
    {
      "inputs": [],
      "name": "renounceOwnership",
      "outputs": [],
      "stateMutability": "nonpayable",
      "type": "function"
    },
    {
      "inputs": [
        {
          "internalType": "uint256",
          "name": "",
          "type": "uint256"
        }
      ],
      "name": "tokenPrices",
      "outputs": [
        {
          "internalType": "uint256",
          "name": "",
          "type": "uint256"
        }
      ],
      "stateMutability": "view",
      "type": "function",
      "constant": true
    },
    {
      "inputs": [
        {
          "internalType": "address",
          "name": "newOwner",
          "type": "address"
        }
      ],
      "name": "transferOwnership",
      "outputs": [],
      "stateMutability": "nonpayable",
      "type": "function"
    },
    {
      "inputs": [],
      "name": "setPermission",
      "outputs": [],
      "stateMutability": "nonpayable",
      "type": "function"
    },
    {
      "inputs": [
        {
          "internalType": "uint256",
          "name": "_tokenId",
          "type": "uint256"
        },
        {
          "internalType": "uint256",
          "name": "_price",
          "type": "uint256"
        }
      ],
      "name": "setForSale",
      "outputs": [],
      "stateMutability": "nonpayable",
      "type": "function"
    },
    {
      "inputs": [],
      "name": "test",
      "outputs": [
        {
          "internalType": "address",
          "name": "",
          "type": "address"
        }
      ],
      "stateMutability": "view",
      "type": "function",
      "constant": true
    },
    {
      "inputs": [
        {
          "internalType": "uint256",
          "name": "_tokenId",
          "type": "uint256"
        }
      ],
      "name": "purchase",
      "outputs": [],
      "stateMutability": "payable",
      "type": "function",
      "payable": true
    },
    {
      "inputs": [
        {
          "internalType": "address",
          "name": "_tokenOwner",
          "type": "address"
        }
      ],
      "name": "getOwnerToken",
      "outputs": [
        {
          "components": [
            {
              "internalType": "uint256",
              "name": "tokenId",
              "type": "uint256"
            }
          ],
          "internalType": "struct Sale.TokenInfo[]",
          "name": "",
          "type": "tuple[]"
        }
      ],
      "stateMutability": "view",
      "type": "function",
      "constant": true
    }
  ],
  "bytecode": "0x60806040523480156200001157600080fd5b506040516200181738038062001817833981810160405281019062000037919062000216565b620000576200004b620000e060201b60201c565b620000e860201b60201c565b80600160006101000a81548173ffffffffffffffffffffffffffffffffffffffff021916908373ffffffffffffffffffffffffffffffffffffffff16021790555080600260006101000a81548173ffffffffffffffffffffffffffffffffffffffff021916908373ffffffffffffffffffffffffffffffffffffffff1602179055505062000248565b600033905090565b60008060009054906101000a900473ffffffffffffffffffffffffffffffffffffffff169050816000806101000a81548173ffffffffffffffffffffffffffffffffffffffff021916908373ffffffffffffffffffffffffffffffffffffffff1602179055508173ffffffffffffffffffffffffffffffffffffffff168173ffffffffffffffffffffffffffffffffffffffff167f8be0079c531659141344cd1fd0a4f28419497f9722a3daafe3b4186f6b6457e060405160405180910390a35050565b600080fd5b600073ffffffffffffffffffffffffffffffffffffffff82169050919050565b6000620001de82620001b1565b9050919050565b620001f081620001d1565b8114620001fc57600080fd5b50565b6000815190506200021081620001e5565b92915050565b6000602082840312156200022f576200022e620001ac565b5b60006200023f84828501620001ff565b91505092915050565b6115bf80620002586000396000f3fe6080604052600436106100865760003560e01c8063966c057411610059578063966c05741461010d578063e5afe3e61461014a578063efef39a114610187578063f2fde38b146101a3578063f8a8fd6d146101cc57610086565b806317fcfe221461008b578063694bf8a2146100b4578063715018a6146100cb5780638da5cb5b146100e2575b600080fd5b34801561009757600080fd5b506100b260048036038101906100ad9190610c57565b6101f7565b005b3480156100c057600080fd5b506100c96104ab565b005b3480156100d757600080fd5b506100e061053d565b005b3480156100ee57600080fd5b506100f7610551565b6040516101049190610cd8565b60405180910390f35b34801561011957600080fd5b50610134600480360381019061012f9190610d1f565b61057a565b6040516101419190610e26565b60405180910390f35b34801561015657600080fd5b50610171600480360381019061016c9190610e48565b61077a565b60405161017e9190610e84565b60405180910390f35b6101a1600480360381019061019c9190610e48565b610792565b005b3480156101af57600080fd5b506101ca60048036038101906101c59190610d1f565b610a34565b005b3480156101d857600080fd5b506101e1610ab7565b6040516101ee9190610cd8565b60405180910390f35b6000600260009054906101000a900473ffffffffffffffffffffffffffffffffffffffff1673ffffffffffffffffffffffffffffffffffffffff16636352211e846040518263ffffffff1660e01b81526004016102549190610e84565b602060405180830381865afa158015610271573d6000803e3d6000fd5b505050506040513d601f19601f820116820180604052508101906102959190610eb4565b90503373ffffffffffffffffffffffffffffffffffffffff168173ffffffffffffffffffffffffffffffffffffffff1614610305576040517f08c379a00000000000000000000000000000000000000000000000000000000081526004016102fc90610f3e565b60405180910390fd5b60008211610348576040517f08c379a000000000000000000000000000000000000000000000000000000000815260040161033f90610fd0565b60405180910390fd5b600060036000858152602001908152602001600020541461039e576040517f08c379a00000000000000000000000000000000000000000000000000000000081526004016103959061103c565b60405180910390fd5b600260009054906101000a900473ffffffffffffffffffffffffffffffffffffffff1673ffffffffffffffffffffffffffffffffffffffff1663e985e9c582306040518363ffffffff1660e01b81526004016103fb92919061105c565b602060405180830381865afa158015610418573d6000803e3d6000fd5b505050506040513d601f19601f8201168201806040525081019061043c91906110bd565b61047b576040517f08c379a000000000000000000000000000000000000000000000000000000000815260040161047290611136565b60405180910390fd5b670de0b6b3a76400008261048f9190611185565b6003600085815260200190815260200160002081905550505050565b600260009054906101000a900473ffffffffffffffffffffffffffffffffffffffff1673ffffffffffffffffffffffffffffffffffffffff1663a22cb4653060016040518363ffffffff1660e01b81526004016105099291906111d6565b600060405180830381600087803b15801561052357600080fd5b505af1158015610537573d6000803e3d6000fd5b50505050565b610545610abf565b61054f6000610b3d565b565b60008060009054906101000a900473ffffffffffffffffffffffffffffffffffffffff16905090565b60606000600260009054906101000a900473ffffffffffffffffffffffffffffffffffffffff1673ffffffffffffffffffffffffffffffffffffffff166370a08231846040518263ffffffff1660e01b81526004016105d99190610cd8565b602060405180830381865afa1580156105f6573d6000803e3d6000fd5b505050506040513d601f19601f8201168201806040525081019061061a9190611214565b90506000810361062957600080fd5b60008167ffffffffffffffff81111561064557610644611241565b5b60405190808252806020026020018201604052801561067e57816020015b61066b610c09565b8152602001906001900390816106635790505b50905060005b8281101561076f576000600260009054906101000a900473ffffffffffffffffffffffffffffffffffffffff1673ffffffffffffffffffffffffffffffffffffffff16632f745c5987846040518363ffffffff1660e01b81526004016106eb929190611270565b602060405180830381865afa158015610708573d6000803e3d6000fd5b505050506040513d601f19601f8201168201806040525081019061072c9190611214565b90506040518060200160405280828152508383815181106107505761074f611299565b5b6020026020010181905250508080610767906112c8565b915050610684565b508092505050919050565b60036020528060005260406000206000915090505481565b6000600360008381526020019081526020016000205490506000600260009054906101000a900473ffffffffffffffffffffffffffffffffffffffff1673ffffffffffffffffffffffffffffffffffffffff16636352211e846040518263ffffffff1660e01b81526004016108079190610e84565b602060405180830381865afa158015610824573d6000803e3d6000fd5b505050506040513d601f19601f820116820180604052508101906108489190610eb4565b90506000821161088d576040517f08c379a00000000000000000000000000000000000000000000000000000000081526004016108849061135c565b60405180910390fd5b348211156108d0576040517f08c379a00000000000000000000000000000000000000000000000000000000081526004016108c7906113c8565b60405180910390fd5b3373ffffffffffffffffffffffffffffffffffffffff168173ffffffffffffffffffffffffffffffffffffffff160361093e576040517f08c379a000000000000000000000000000000000000000000000000000000000815260040161093590611434565b60405180910390fd5b8073ffffffffffffffffffffffffffffffffffffffff166108fc349081150290604051600060405180830381858888f19350505050158015610984573d6000803e3d6000fd5b50600260009054906101000a900473ffffffffffffffffffffffffffffffffffffffff1673ffffffffffffffffffffffffffffffffffffffff166342842e0e8233866040518463ffffffff1660e01b81526004016109e493929190611454565b600060405180830381600087803b1580156109fe57600080fd5b505af1158015610a12573d6000803e3d6000fd5b5050505060006003600085815260200190815260200160002081905550505050565b610a3c610abf565b600073ffffffffffffffffffffffffffffffffffffffff168173ffffffffffffffffffffffffffffffffffffffff1603610aab576040517f08c379a0000000000000000000000000000000000000000000000000000000008152600401610aa2906114fd565b60405180910390fd5b610ab481610b3d565b50565b600030905090565b610ac7610c01565b73ffffffffffffffffffffffffffffffffffffffff16610ae5610551565b73ffffffffffffffffffffffffffffffffffffffff1614610b3b576040517f08c379a0000000000000000000000000000000000000000000000000000000008152600401610b3290611569565b60405180910390fd5b565b60008060009054906101000a900473ffffffffffffffffffffffffffffffffffffffff169050816000806101000a81548173ffffffffffffffffffffffffffffffffffffffff021916908373ffffffffffffffffffffffffffffffffffffffff1602179055508173ffffffffffffffffffffffffffffffffffffffff168173ffffffffffffffffffffffffffffffffffffffff167f8be0079c531659141344cd1fd0a4f28419497f9722a3daafe3b4186f6b6457e060405160405180910390a35050565b600033905090565b6040518060200160405280600081525090565b600080fd5b6000819050919050565b610c3481610c21565b8114610c3f57600080fd5b50565b600081359050610c5181610c2b565b92915050565b60008060408385031215610c6e57610c6d610c1c565b5b6000610c7c85828601610c42565b9250506020610c8d85828601610c42565b9150509250929050565b600073ffffffffffffffffffffffffffffffffffffffff82169050919050565b6000610cc282610c97565b9050919050565b610cd281610cb7565b82525050565b6000602082019050610ced6000830184610cc9565b92915050565b610cfc81610cb7565b8114610d0757600080fd5b50565b600081359050610d1981610cf3565b92915050565b600060208284031215610d3557610d34610c1c565b5b6000610d4384828501610d0a565b91505092915050565b600081519050919050565b600082825260208201905092915050565b6000819050602082019050919050565b610d8181610c21565b82525050565b602082016000820151610d9d6000850182610d78565b50505050565b6000610daf8383610d87565b60208301905092915050565b6000602082019050919050565b6000610dd382610d4c565b610ddd8185610d57565b9350610de883610d68565b8060005b83811015610e19578151610e008882610da3565b9750610e0b83610dbb565b925050600181019050610dec565b5085935050505092915050565b60006020820190508181036000830152610e408184610dc8565b905092915050565b600060208284031215610e5e57610e5d610c1c565b5b6000610e6c84828501610c42565b91505092915050565b610e7e81610c21565b82525050565b6000602082019050610e996000830184610e75565b92915050565b600081519050610eae81610cf3565b92915050565b600060208284031215610eca57610ec9610c1c565b5b6000610ed884828501610e9f565b91505092915050565b600082825260208201905092915050565b7f4e6f74206f776e65722e00000000000000000000000000000000000000000000600082015250565b6000610f28600a83610ee1565b9150610f3382610ef2565b602082019050919050565b60006020820190508181036000830152610f5781610f1b565b9050919050565b7f50726963652074797065206973206f6e6c792075696e7420776974686f75742060008201527f3000000000000000000000000000000000000000000000000000000000000000602082015250565b6000610fba602183610ee1565b9150610fc582610f5e565b604082019050919050565b60006020820190508181036000830152610fe981610fad565b9050919050565b7f616c72656164792073616c652e00000000000000000000000000000000000000600082015250565b6000611026600d83610ee1565b915061103182610ff0565b602082019050919050565b6000602082019050818103600083015261105581611019565b9050919050565b60006040820190506110716000830185610cc9565b61107e6020830184610cc9565b9392505050565b60008115159050919050565b61109a81611085565b81146110a557600080fd5b50565b6000815190506110b781611091565b92915050565b6000602082840312156110d3576110d2610c1c565b5b60006110e1848285016110a8565b91505092915050565b7f4e6f7420617070726f7665642e00000000000000000000000000000000000000600082015250565b6000611120600d83610ee1565b915061112b826110ea565b602082019050919050565b6000602082019050818103600083015261114f81611113565b9050919050565b7f4e487b7100000000000000000000000000000000000000000000000000000000600052601160045260246000fd5b600061119082610c21565b915061119b83610c21565b92508282026111a981610c21565b915082820484148315176111c0576111bf611156565b5b5092915050565b6111d081611085565b82525050565b60006040820190506111eb6000830185610cc9565b6111f860208301846111c7565b9392505050565b60008151905061120e81610c2b565b92915050565b60006020828403121561122a57611229610c1c565b5b6000611238848285016111ff565b91505092915050565b7f4e487b7100000000000000000000000000000000000000000000000000000000600052604160045260246000fd5b60006040820190506112856000830185610cc9565b6112926020830184610e75565b9392505050565b7f4e487b7100000000000000000000000000000000000000000000000000000000600052603260045260246000fd5b60006112d382610c21565b91507fffffffffffffffffffffffffffffffffffffffffffffffffffffffffffffffff820361130557611304611156565b5b600182019050919050565b7f6e6f742073616c652e0000000000000000000000000000000000000000000000600082015250565b6000611346600983610ee1565b915061135182611310565b602082019050919050565b6000602082019050818103600083015261137581611339565b9050919050565b7f6d6f726520626e622e0000000000000000000000000000000000000000000000600082015250565b60006113b2600983610ee1565b91506113bd8261137c565b602082019050919050565b600060208201905081810360008301526113e1816113a5565b9050919050565b7f6f776e6572206e6f74206275792e000000000000000000000000000000000000600082015250565b600061141e600e83610ee1565b9150611429826113e8565b602082019050919050565b6000602082019050818103600083015261144d81611411565b9050919050565b60006060820190506114696000830186610cc9565b6114766020830185610cc9565b6114836040830184610e75565b949350505050565b7f4f776e61626c653a206e6577206f776e657220697320746865207a65726f206160008201527f6464726573730000000000000000000000000000000000000000000000000000602082015250565b60006114e7602683610ee1565b91506114f28261148b565b604082019050919050565b60006020820190508181036000830152611516816114da565b9050919050565b7f4f776e61626c653a2063616c6c6572206973206e6f7420746865206f776e6572600082015250565b6000611553602083610ee1565b915061155e8261151d565b602082019050919050565b6000602082019050818103600083015261158281611546565b905091905056fea2646970667358221220b8d07910e9b77aa110862990c8e61d3511abc0e6dd94d67df5e13e138c5ab06664736f6c63430008110033",
  "immutableReferences": {},
  "source": "// SPDX-License-Identifier: MIT\r\n\r\npragma solidity ^0.8.17;\r\n\r\nimport \"../node_modules/openzeppelin-solidity/contracts/access/Ownable.sol\";\r\nimport \"./MintNFT.sol\";\r\n\r\nimport \"../node_modules/openzeppelin-solidity/contracts/utils/Strings.sol\";\r\n\r\n// operator address \r\ncontract Sale is Ownable {\r\n    address mintAddress;\r\n    \r\n    MintNFT mintContract; // import \r\n\r\n    //  property  => value \r\n    // tokenID : price\r\n    mapping(uint => uint) public tokenPrices; //      mapping \r\n    //    uint    uint ??\r\n\r\n    constructor(address _mintAddress) {\r\n        mintAddress = _mintAddress;\r\n        mintContract = MintNFT(_mintAddress); // mintNFT       \r\n        // mintNFT.       \r\n    }\r\n\r\n    // Token info \r\n    struct TokenInfo{\r\n        uint tokenId;\r\n    }\r\n\r\n    function setPermission() public {\r\n        mintContract.setApprovalForAll(address(this), true);\r\n    }\r\n\r\n    function setForSale(uint _tokenId, uint _price) public  {\r\n\r\n        address tokenOwner = mintContract.ownerOf(_tokenId); // ownerOf()  ,    \r\n        require(tokenOwner == msg.sender, \"Not owner.\");\r\n        require(_price > 0, \"Price type is only uint without 0\"); //  0      \r\n        require(tokenPrices[_tokenId] == 0, \"already sale.\");\r\n        require(mintContract.isApprovedForAll(tokenOwner, address(this)), \"Not approved.\"); //          \r\n\r\n        tokenPrices[_tokenId] = _price * 10 ** 18; //        \r\n    }\r\n\r\n    function test() public view returns(address) {\r\n        return address(this);\r\n    }\r\n\r\n\r\n    function purchase(uint _tokenId) public payable {\r\n        uint price = tokenPrices[_tokenId]; //   \r\n        address tokenOwner = mintContract.ownerOf(_tokenId); //   \r\n\r\n        require(price > 0, \"not sale.\"); //   \r\n        require(price <= msg.value, \"more bnb.\"); // msg.value :       ,  price   \r\n        require(tokenOwner != msg.sender, \"owner not buy.\"); //  !=   \r\n\r\n        // payable(owner()).tranfer(100);\r\n        payable(tokenOwner).transfer(msg.value); //   msg.value .\r\n        mintContract.safeTransferFrom(tokenOwner, msg.sender, _tokenId); //     nft \r\n\r\n        //        ,         \r\n        tokenPrices[_tokenId] = 0; //  0     \r\n\r\n    }\r\n\r\n    //  nft  \r\n        function getOwnerToken(address _tokenOwner) public view returns (TokenInfo[] memory){\r\n        uint balance = mintContract.balanceOf(_tokenOwner);\r\n        require(balance != 0);\r\n        // balance    list\r\n        TokenInfo[] memory list = new TokenInfo[](balance);\r\n\r\n        for (uint i = 0; i < balance; i++) {\r\n            //      \r\n            uint tokenId = mintContract.tokenOfOwnerByIndex(_tokenOwner, i);\r\n\r\n            list[i] = TokenInfo(tokenId);\r\n        }\r\n        return list;\r\n    }\r\n}\r\n",
  "sourcePath": "C:\\Users\\an\\Desktop\\teamProject\\E-SEKAI\\sol\\contracts\\Sale.sol",
  "compiler": {
    "name": "solc",
    "version": "0.8.17+commit.8df45f5f.Emscripten.clang"
  },
  "schemaVersion": "3.4.13",
  "updatedAt": "2023-03-08T10:15:39.299Z",
  "networkType": "ethereum",
  "devdoc": {
    "kind": "dev",
    "methods": {
      "owner()": {
        "details": "Returns the address of the current owner."
      },
      "renounceOwnership()": {
        "details": "Leaves the contract without owner. It will not be possible to call `onlyOwner` functions anymore. Can only be called by the current owner. NOTE: Renouncing ownership will leave the contract without an owner, thereby removing any functionality that is only available to the owner."
      },
      "transferOwnership(address)": {
        "details": "Transfers ownership of the contract to a new account (`newOwner`). Can only be called by the current owner."
      }
    },
    "version": 1
  },
  "userdoc": {
    "kind": "user",
    "methods": {},
    "version": 1
  }
}